:020000040800F2
:1000000000000120117100085571000855710008A9
:100010005571000855710008557100080000000076
:100020000000000000000000000000009510000823
:10003000557100080000000021110008651100083A
:100040005571000855710008557100085571000878
:100050005571000855710008557100085571000868
:10006000557100085571000855710008615D000860
:100070005571000855710008557100081D6600088B
:100080005571000855710008055D0008557100089C
:100090005571000855710008557100085571000828
:1000A0005571000855710008557100088D6F0008E2
:1000B0005571000855710008557100085571000808
:1000C00055710008557100085571000855710008F8
:1000D00055710008557100085571000855710008E8
:1000E00055710008557100085571000800000000A6
:1000F0000000000000000000000000000000000000
:100100000000000000000000557100085571000853
:1001100055710008557100085571000855710008A7
:100120005571000855710008557100085571000897
:100130005571000800000000000000005571000823
:1001400055710008557100085571000811720008BA
:10015000000000000000000000000000000000009F
:10016000000000000000000000000000000000008F
:10017000000000000000000000000000000000007F
:10018000000000000000000000000000000000006F
:10019000000000000000000000000000000000005F
:1001A000000000000000000000000000000000004F
:1001B000000000000000000000000000000000003F
:1001C000000000000000000000000000000000002F
:1001D000000000000000000000000000000000001F
:0401E0005FF8E0F1F3
:1001E80081F0004102E000BF83F0004330B54FEAE0
:1001F80041044FEA430594EA050F08BF90EA020F4D
:100208001FBF54EA000C55EA020C7FEA645C7FEADF
:10021800655C00F0E2804FEA5454D4EB5555B8BF02
:100228006D420CDD2C4480EA020281EA030382EA73
:10023800000083EA010180EA020281EA0303362D05
:1002480088BF30BD11F0004F4FEA01314FF4801CD8
:100258004CEA113102D0404261EB410113F0004FEA
:100268004FEA03334CEA133302D0524263EB4303A1
:1002780094EA050F00F0A780A4F10104D5F1200E3F
:100288000DDB02FA0EFC22FA05F2801841F100019A
:1002980003FA0EF2801843FA05F359410EE0A5F16E
:1002A80020050EF1200E012A03FA0EFC28BF4CF09F
:1002B800020C43FA05F3C01851EBE37101F0004555
:1002C80007D54FF0000EDCF1000C7EEB00006EEB62
:1002D8000101B1F5801F1BD3B1F5001F0CD34908EC
:1002E8005FEA30004FEA3C0C04F101044FEA445243
:1002F80012F5800F80F09A80BCF1004F08BF5FEACA
:10030800500C50F1000041EB045141EA050130BDA9
:100318005FEA4C0C404141EB010111F4801FA4F14C
:100328000104E9D191F0000F04BF01460020B1FAA1
:1003380081F308BF2033A3F10B03B3F120020CDAD9
:100348000C3208DD02F1140CC2F10C0201FA0CF0B7
:1003580021FA02F10CE002F11402D8BFC2F1200C1C
:1003680001FA02F120FA0CFCDCBF41EA0C019040D2
:10037800E41AA2BF01EB0451294330BD6FEA04041B
:100388001F3C1CDA0C340EDC04F11404C4F1200206
:1003980020FA04F001FA02F340EA030021FA04F318
:1003A80045EA030130BDC4F10C04C4F1200220FA6F
:1003B80002F001FA04F340EA0300294630BD21FAAD
:1003C80004F0294630BD94F0000F83F4801306BF73
:1003D80081F480110134013D4EE77FEA645C18BF67
:1003E8007FEA655C29D094EA050F08BF90EA020FFE
:1003F80005D054EA000C04BF1946104630BD91EAF6
:10040800030F1EBF0021002030BD5FEA545C05D1F8
:100418004000494128BF41F0004130BD14F5800437
:100428003CBF01F5801130BD01F0004545F0FE41AB
:1004380041F470014FF0000030BD7FEA645C1ABFE0
:10044800194610467FEA655C1CBF0B46024650EA17
:10045800013406BF52EA033591EA030F41F4002143
:1004680030BD00BF90F0000F04BF0021704730B5C9
:100478004FF4806404F132044FF000054FF000019E
:1004880050E700BF90F0000F04BF0021704730B55F
:100498004FF4806404F1320410F0004548BF404234
:1004A8004FF000013EE700BF42004FEAE2014FEA89
:1004B80031014FEA02701FBF12F07F4393F07F4F64
:1004C80081F06051704792F0000F14BF93F07F4F96
:1004D800704730B54FF4607401F0004521F00041D9
:1004E80020E700BF50EA010208BF704730B54FF05F
:1004F80000050AE050EA010208BF704730B511F064
:10050800004502D5404261EB41014FF4806404F19B
:1005180032045FEA915C3FF4DCAE4FF003025FEA1D
:10052800DC0C18BF03325FEADC0C18BF033202EBA5
:10053800DC02C2F1200300FA03FC20FA02F001FAFF
:1005480003FE40EA0E0021FA02F11444C1E600BF9E
:1005580070B54FF0FF0C4CF4E06C1CEA11541DBF51
:100568001CEA135594EA0C0F95EA0C0F00F0DEF81C
:100578002C4481EA030621EA4C5123EA4C5350EA01
:10058800013518BF52EA033541F4801143F4801352
:1005980038D0A0FB02CE4FF00005E1FB02E506F0E3
:1005A8000042E0FB03E54FF00006E1FB03569CF038
:1005B800000F18BF4EF0010EA4F1FF04B6F5007F3E
:1005C80064F5407404D25FEA4E0E6D4146EB0606B0
:1005D80042EAC62141EA55514FEAC52040EA5E5039
:1005E8004FEACE2EB4F1FD0C88BFBCF5E06F1ED8E3
:1005F800BEF1004F08BF5FEA500E50F1000041EB1A
:10060800045170BD06F0004646EA010140EA0200C6
:1006180081EA0301B4EB5C04C2BFD4EB0C0541EAE8
:10062800045170BD41F480114FF0000E013C00F3FD
:10063800AB8014F1360FDEBF002001F0004170BD21
:10064800C4F10004203C35DA0C341BDC04F114043A
:10065800C4F1200500FA05F320FA04F001FA05F2C6
:1006680040EA020001F0004221F0004110EBD37093
:1006780021FA04F642EB06015EEA430E08BF20EABF
:10068800D37070BDC4F10C04C4F1200500FA04F362
:1006980020FA05F001FA04F240EA020001F00041F4
:1006A80010EBD37041F100015EEA430E08BF20EA67
:1006B800D37070BDC4F1200500FA05F24EEA020EAF
:1006C80020FA04F301FA05F243EA020321FA04F0DE
:1006D80001F0004121FA04F220EA020000EBD37095
:1006E8005EEA430E08BF20EAD37070BD94F0000F95
:1006F8000FD101F00046400041EB010111F4801FC9
:1007080008BF013CF7D041EA060195F0000F18BF79
:10071800704703F00046520043EB030313F4801FB5
:1007280008BF013DF7D043EA0603704794EA0C0F6F
:100738000CEA135518BF95EA0C0F0CD050EA410685
:1007480018BF52EA4306D1D181EA030101F0004102
:100758004FF0000070BD50EA410606BF104619462A
:1007680052EA430619D094EA0C0F02D150EA013636
:1007780013D195EA0C0F05D152EA03361CBF104677
:1007880019460AD181EA030101F0004141F0FE4116
:1007980041F470014FF0000070BD41F0FE4141F49A
:1007A800780170BD70B54FF0FF0C4CF4E06C1CEA9A
:1007B80011541DBF1CEA135594EA0C0F95EA0C0F4F
:1007C80000F0A7F8A4EB050481EA030E52EA03350A
:1007D8004FEA013100F088804FEA03334FF080552B
:1007E80045EA131343EA12634FEA022245EA111558
:1007F80045EA10654FEA00260EF000419D4208BF09
:10080800964244F1FD0404F5407402D25B084FEAB5
:100818003202B61A65EB03055B084FEA32024FF461
:1008280080104FF4002CB6EB020E75EB030E22BFBE
:10083800B61A754640EA0C005B084FEA3202B6EB7E
:10084800020E75EB030E22BFB61A754640EA5C002D
:100858005B084FEA3202B6EB020E75EB030E22BFBD
:10086800B61A754640EA9C005B084FEA3202B6EBBE
:10087800020E75EB030E22BFB61A754640EADC007D
:1008880055EA060E18D04FEA051545EA16754FEADF
:1008980006164FEAC30343EA52734FEAC2025FEAFD
:1008A8001C1CC0D111F4801F0BD141EA00014FF08C
:1008B80000004FF0004CB6E711F4801F04BF01435D
:1008C8000020B4F1FD0C88BFBCF5E06F3FF6AFAE79
:1008D800B5EB030C04BFB6EB020C5FEA500C50F109
:1008E800000041EB045170BD0EF0004E4EEA11318C
:1008F80014EB5C04C2BFD4EB0C0541EA045170BD93
:1009080041F480114FF0000E013C90E645EA060ED6
:100918008DE60CEA135594EA0C0F08BF95EA0C0F04
:100928003FF43BAF94EA0C0F0AD150EA01347FF44C
:1009380034AF95EA0C0F7FF425AF104619462CE723
:1009480095EA0C0F06D152EA03353FF4FDAE104686
:10095800194622E750EA410618BF52EA43067FF4D7
:10096800C5AE50EA41047FF40DAF52EA43057FF467
:10097800EBAE12E74FEA410212F5001215D211D57B
:100988006FF47873B3EB625212D94FEAC12343F084
:10099800004343EA505311F0004F23FA02F018BF06
:1009A800404270474FF00000704750EA013005D1CF
:1009B80011F0004008BF6FF0004070474FF0000092
:1009C800704700BF80F0004002E000BF81F00041A6
:1009D80042001FBF5FEA410392EA030F7FEA226CDD
:1009E8007FEA236C6AD04FEA1262D2EB1363C1BF6D
:1009F800D218414048404140B8BF5B42192B88BFDC
:100A0800704710F0004F40F4000020F07F4018BFFE
:100A1800404211F0004F41F4000121F07F4118BF1E
:100A2800494292EA030F3FD0A2F1010241FA03FCC6
:100A380010EB0C00C3F1200301FA03F100F00043AE
:100A480002D5494260EB4000B0F5000F13D3B0F176
:100A5800807F06D340084FEA310102F10102FE2AE5
:100A680051D2B1F1004F40EBC25008BF20F0010055
:100A780040EA03007047490040EB000010F4000F03
:100A8800A2F10102EDD1B0FA80FCACF1080CB2EB96
:100A98000C0200FA0CF0AABF00EBC25052421843F5
:100AA800BCBFD0401843704792F0000F81F400019A
:100AB80006BF80F400000132013BB5E74FEA41036D
:100AC8007FEA226C18BF7FEA236C21D092EA030FD9
:100AD80004D092F0000F08BF0846704790EA010F53
:100AE8001CBF0020704712F07F4F04D1400028BF80
:100AF80040F00040704712F100723CBF00F5000062
:100B0800704700F0004343F0FE4040F40000704797
:100B18007FEA226216BF08467FEA23630146420243
:100B280006BF5FEA412390EA010F40F48000704756
:100B38004FF0000304E000BF10F0004348BF4042FC
:100B48005FEA000C08BF704743F0964301464FF038
:100B580000001CE050EA010208BF70474FF0000394
:100B68000AE000BF50EA010208BF704711F00043D5
:100B780002D5404261EB41015FEA010C02BF8446A5
:100B88000146002043F0B64308BFA3F18053A3F504
:100B98000003BCFA8CF2083AA3EBC25310DB01FA4B
:100BA80002FC634400FA02FCC2F12002BCF1004FCF
:100BB80020FA02F243EB020008BF20F00100704760
:100BC80002F1200201FA02FCC2F1200250EA4C00B4
:100BD80021FA02F243EB020008BF20EADC707047FA
:100BE8004FF0FF0C1CEAD0521EBF1CEAD15392EA08
:100BF8000C0F93EA0C0F6FD01A4480EA010C4002E4
:100C080018BF5FEA41211ED04FF0006343EA50103D
:100C180043EA5111A0FB01310CF00040B1F5000F7F
:100C28003EBF490041EAD3715B0040EA010062F12E
:100C38007F02FD2A1DD8B3F1004F40EBC25008BF18
:100C480020F00100704790F0000F0CF0004C08BF36
:100C580049024CEA502040EA51207F3AC2BFD2F103
:100C6800FF0340EAC250704740F400004FF0000311
:100C7800013A5DDC12F1190FDCBF00F0004070474B
:100C8800C2F10002410021FA02F1C2F1200200FA89
:100C980002FC5FEA310040F1000053EA4C0308BF50
:100CA80020EADC70704792F0000F00F0004C02BFA1
:100CB800400010F4000F013AF9D040EA0C0093F01C
:100CC800000F01F0004C02BF490011F4000F013B76
:100CD800F9D041EA0C018FE70CEAD15392EA0C0FE4
:100CE80018BF93EA0C0F0AD030F0004C18BF31F04F
:100CF800004CD8D180EA010000F00040704790F025
:100D0800000F17BF90F0004F084691F0000F91F0C8
:100D1800004F14D092EA0C0F01D142020FD193EA8E
:100D28000C0F03D14B0218BF084608D180EA010016
:100D380000F0004040F0FE4040F40000704740F0F2
:100D4800FE4040F4400070474FF0FF0C1CEAD052C0
:100D58001EBF1CEAD15392EA0C0F93EA0C0F69D01C
:100D6800A2EB030280EA010C49024FEA402037D087
:100D78004FF0805343EA111143EA10130CF000407E
:100D88008B4238BF5B0042F17D024FF4000C8B426E
:100D980024BF5B1A40EA0C00B3EB510F24BFA3EB4E
:100DA800510340EA5C00B3EB910F24BFA3EB91031E
:100DB80040EA9C00B3EBD10F24BFA3EBD10340EA78
:100DC800DC001B0118BF5FEA1C1CE0D1FD2A3FF6BE
:100DD80050AF8B4240EBC25008BF20F00100704773
:100DE8000CF0004C4CEA50207F32C2BFD2F1FF0316
:100DF80040EAC250704740F400004FF00003013A47
:100E080037E792F0000F00F0004C02BF400010F4EA
:100E1800000F013AF9D040EA0C0093F0000F01F0FE
:100E2800004C02BF490011F4000F013BF9D041EA20
:100E38000C0195E70CEAD15392EA0C0F08D1420253
:100E48007FF47DAF93EA0C0F7FF470AF084676E726
:100E580093EA0C0F04D14B023FF44CAF08466EE7FF
:100E680030F0004C18BF31F0004CCAD130F00042CD
:100E78007FF45CAF31F000437FF43CAF5FE700BF25
:100E88004FEA4002B2F1FE4F0FD34FF09E03B3EB8F
:100E980012620DD94FEA002343F0004310F0004FCF
:100EA80023FA02F018BF404270474FF00000704725
:100EB80012F1610F01D1420205D110F0004008BFC4
:100EC8006FF0004070474FF000007047844641EAD9
:100ED800000313F0030349D1403A23D30B6803609E
:100EE8004B6843608B688360CB68C3600B690361A0
:100EF8004B6943618B698361CB69C3610B6A036288
:100F08004B6A43628B6A8362CB6AC3620B6B03636F
:100F18004B6B43638B6B8363CB6BC3634030403154
:100F2800403ADBD230320BD30B6803604B68436026
:100F38008B688360CB68C36010301031103AF3D2ED
:100F48000C3205D351F8043B40F8043B043AF9D27B
:100F5800043208D0D2071CBF11F8013B00F8013B4E
:100F680001D30B8803806046704700BF082A13D35B
:100F78008B07B1D010F00303AED0C3F10403D21A2B
:100F8800DB071CBF11F8013B00F8013BA4D331F883
:100F9800023B20F8023B9FE7043AD9D3013A11F803
:100FA800013B00F8013BF9D20B7803704B78437092
:100FB8008B7883706046704700F108034FF0FF316B
:100FC8000022816080E80C00C3600361704700BFA5
:100FD80000230361704700BF43684B609A688A60CA
:100FE8009A6851609960086103680133036070472B
:100FF80030B40D686B1C11D000F1080200E01A46ED
:1010080053681C68A542FAD24B6099608A605160A7
:101018000861036830BC0133036070470269536894
:10102800F2E700BF4268816803699160826841689D
:1010380051605A68824204BF82685A600022026185
:10104800186801381860704706480068006880F31F
:10105800088862B661B6BFF34F8FBFF36F8F00DFAA
:1010680000BF000008ED00E0074B10B44FF080749B
:1010780040F8081C40F8202C40F8044C40F80C3C80
:101088005DF8044B40387047E1100008074B1968B9
:101098000868B0E8F00F80F30988BFF36F8F4FF04E
:1010A800000080F311884EF00D0E7047EC0100200F
:1010B800044B4FF080521A60BFF34F8FBFF36F8F0E
:1010C800704700BF04ED00E0EFF311804FF0BF015F
:1010D80081F311887047002008B5FFF7F5FFFEE798
:1010E80008B5FFF7F1FF044B1A6801321A60BFF325
:1010F8004F8FBFF36F8F08BD0000002080F3118869
:10110800704700BF034B18680138186000B170477A
:10111800FFF7F4BF00000020EFF30980BFF36F8FE3
:101128000D4B1A6820E9F00F10602DE908404FF0C8
:10113800BF0080F3118800F057FE4FF0000080F3E5
:101148001188BDE8084019680868B0E8F00F80F316
:101158000988BFF36F8F7047EC01002008B5FFF7CF
:10116800B3FF00F0CDFC18B1044B4FF080521A6069
:101178000020BDE80840FFF7C1BF00BF04ED00E054
:1011880003490448044B072208601A60704700BFEF
:1011980014E000E03F19010010E000E008B5094B39
:1011A8001A6842F47F021A601A6842F07F421A6095
:1011B800FFF7E6FF044B00221A60FFF745FFFFF731
:1011C80083FFFEE720ED00E00000002010B4164A7F
:1011D80000E01A4613688342FBD3516854188442CE
:1011E8000AD041684418A3420DD09042036018BF4A
:1011F80010605DF8044B7047446810462144441859
:10120800A3425160F1D1094C2468A342EDD05B6838
:1012180090421944416013681B68036018BF10604E
:101228005DF8044B704700BF3C01002038010020E6
:101238002DE9F041044600F055FC284B1D682C426E
:1012480043D1002C34D004F1080253071CBF22F00C
:1012580007020832002A3ED0214FD7F800804245C5
:1012680033D820490C6803E0236823B121461C4683
:1012780063689A42F8D81C4B1B689C4225D02368A7
:101288000E680B6063680836991A102916D8174A31
:10129800C3EB080110682B43814238BF116000225C
:1012A80084E80C00396000F0C1FC3046BDE8F081EC
:1012B800264600F0BBFC3046BDE8F081A01841602E
:1012C8006260FFF783FF6368E1E7002600F0AEFC89
:1012D8003046BDE8F0811646EBE700BF4801002024
:1012E800340100203C010020380100204401002086
:1012F80000B583B040B1114A50F8043C12681A4254
:1013080002D050F8081C11B103B05DF804FB23EAC1
:10131800020340F8043C019000F0E4FB0198084BFC
:1013280050F8041C1A6808380A441A60FFF74EFF80
:1013380003B05DF804EB00F079BC00BF4801002061
:10134800340100202DE9F007416800293CD0DFF87E
:1013580088A00026DAF80070DFF88090B446B0461E
:1013680000F10804036820465A0705D0DA1D22F068
:1013780007029B1A19441346CA18083A22F00702B2
:101388000834D51A0EB989E84800C2F80480C2F8B2
:10139800008083E824000FB13B605D6854F8041CAA
:1013A800AC44174601360029DCD1CAF800200748AA
:1013B8000749084B4FF00042C0F800C0C1F800C010
:1013C8001A60BDE8F00770478C46F0E7440100203A
:1013D8003401002048010020380100203C01002091
:1013E80038B5036C044615463BB90568002D2FD067
:1013F8000020A36B0133A36338BD1A4685B9806802
:10140800FFF764FDA168236C62680B449342A360F4
:10141800EED323682846A360A36B0133A36338BDCA
:10142800C068FFF753FD226CE368524221681344F9
:101438008B42E36002D263681A44E260022DD7D17E
:10144800A36B002BD4D0A36B0020013BA363D0E790
:10145800406800F0EDFD6560CBE700BF10B4026C9A
:101468006AB1C36844681344A342C36024BF0368D5
:10147800C3605DF8044B08461946FFF727BD5DF8C1
:10148800044B704738B50446FFF72AFEA36C002BBF
:1014980014DD636A93B104F1240507E0A36C013BF2
:1014A800A364A36C002B09DD636A3BB1284600F0F6
:1014B800F5FC0028F2D000F069FDEFE74FF0FF33AC
:1014C800A364FFF71FFEFFF70BFE636C002B14DD10
:1014D800236993B104F1100507E0636C013B636471
:1014E800636C002B09DD23693BB1284600F0D6FC6C
:1014F8000028F2D000F04AFDEFE74FF0FF336364B5
:10150800BDE83840FFF7FEBD70B504460D46FFF74D
:10151800E7FD206CE26B236802FB00F2101A9918B1
:1015280000264FF0FF321844A66361606264E060F1
:10153800A360A26475B923691BB9FFF7E3FD012015
:1015480070BD04F1100000F0A9FC0128F5D1FFF7E7
:10155800AFFDF2E704F11000FFF72EFD04F12400BF
:10156800FFF72AFDFFF7CEFD012070BDF8B50D4647
:101578000646174631B95420FFF75AFE0446A8B16B
:10158800246009E000FB01F05530FFF751FE0446E6
:1015980060B100F154030360E6632564204601212D
:1015A800FFF7B2FF84F850702046F8BD0024FBE72F
:1015B8002DE9F043002585B00446894601921F466F
:1015C800A84625E0FFF79EFD00F08CFAFFF788FD9E
:1015D800636C013308BFC4F84480A36C013308BFAF
:1015E800C4F84880FFF78EFD02A801A900F09EFC10
:1015F800002842D1FFF774FDA26BE36B9A4217D023
:10160800FFF780FD2046FFF73DFF00F00FFB0125A7
:10161800FFF766FDA66BE06B86421AD3022F18D03F
:10162800019E26B3002DCDD102A800F073FCC9E7B6
:10163800FFF768FD04F11000019900F001FC204655
:10164800FFF720FF00F0F2FA0028E0D1FFF730FDA5
:10165800DDE749463A462046FFF7C2FE636AABB962
:10166800D0B9FFF74FFD012005B0BDE8F083FFF7C3
:1016780049FD304605B0BDE8F0832046FFF702FF7C
:1016880000F0D4FA002005B0BDE8F08304F124008E
:1016980000F004FC0128E4D1FFF70AFDE1E700BFF0
:1016A8002DE9F04104461D460F469046FFF70CFD14
:1016B800E36B0646A06B984208D3022D06D000259E
:1016C8003046FFF71BFD2846BDE8F08139462A461B
:1016D8002046FFF785FEA36C013309D0A36C0125D2
:1016E8002B443046A364FFF709FD2846BDE8F08186
:1016F800636A33B930460125FFF700FD2846BDE887
:10170800F08104F1240000F0C9FB0028F2D0B8F100
:10171800000FEFD00125C8F80050D1E72DE9F043BC
:10172800002585B004468946019298462F4611E067
:10173800FFF7E8FC2368002B3FD004F1240001994F
:1017480000F07EFB2046FFF79DFE00F06FFA0028B0
:1017580030D00125FFF7C4FCA26B002A35D1019EC9
:10176800002E4AD015B3FFF7CDFC00F0BBF9FFF708
:10177800B7FC636C013308BF6764A26C013208BF11
:10178800A764FFF7BFFC02A801A900F0CFFB00285F
:1017980039D1FFF7A5FCA36B002BC9D0FFF7B2FC2A
:1017A8002046FFF76FFE00F041FAD2E702A800F0EA
:1017B800B1FBD8E7FFF77CFCCBE7FFF791FC60684B
:1017C80000F0EAFBFFF79EFCB7E749462046E568CC
:1017D800FFF744FEB8F1000F1ED1A26B2368013A4F
:1017E800A2634BB32369D3B104F1100000F056FB98
:1017F800012814D1FFF75CFC11E0FFF783FC3046A9
:1018080005B0BDE8F0832046FFF73CFE00F00EFA75
:10181800002005B0BDE8F083636AE5602BB9FFF7E7
:1018280071FC012005B0BDE8F08304F1240000F04C
:1018380035FB0028F3D0DDE700F03EFC6060D1E71F
:10184800074B1A68126822B9064B4FF0FF321A602C
:1018580070471A68034BD268D26852681A6070479A
:101868004C010020F001002010B50E4B0E4A1968FB
:1018780012680446904248600BD30C4A10681968F5
:101888000431FFF7B5FB0A4B1A68944238BF1C6055
:1018980010BD084ABDE81040106819680431FFF708
:1018A800A7BB00BFEC010020F80100204C0100207C
:1018B800F0010020FC0100202DE9F84F0C9C824625
:1018C8000E46934699460B9F002C00F092805C20B0
:1018D800FFF7AEFC0546002800F096804FEA8B0B18
:1018E80004635A462046A52106F068FA2B6BABF133
:1018F800040B9B442BF0070B0024325D2B1983F853
:101908003420335D01340BB1102CF6D1DDF828807A
:101918000024B8F1040F28BF4FF004082E1D3046EC
:1019280085F843402C65C5F82C80C5F84C80FFF736
:101938004FFB05F11800FFF74BFBC8F105036C6579
:10194800AB612D6185F858406D62584651464A464C
:10195800FFF78AFB286007B13D60FFF7C1FB3E4BEC
:101968003E4C1A6801321A602268002A38D0DFF823
:101978001091D9F800302BB3DFF808B1E86A4FF0BE
:10198800010A0AFA00FC364B364F1A68D7F800E00D
:10199800524400EB800031460BEB80004CEA0E0607
:1019A8006A641A603E60FFF717FBFFF7ABFBD9F8D4
:1019B800003023B123680A9ADB6A9A420BD8504652
:1019C800BDE8F88F23680A9ADB6ADFF8B8B09A4254
:1019D80028BF2560D2E7FFF76BFB5046BDE8F88FBC
:1019E80025601B68DFF89CB0012B11D0DFF89090C0
:1019F800C4E79000FFF71CFC044600287FF467AF9B
:101A08004FF0FF30BDE8F88F2046FFF771FCF7E78D
:101A18005F460BF1640938461437FFF7CDFA4F4596
:101A2800F9D1DFF86490104F4846FFF7C5FA3846F9
:101A3800FFF7C2FA0D48FFF7BFFA0D48FFF7BCFAE7
:101A48000C48FFF7B9FA0C4A0C4BC2F80090DFF8C3
:101A580030901F6092E700BF40020020EC01002098
:101A680014020020440200202C0200200002002062
:101A7800580100206C0100204C010020FC010020CE
:101A880050010020840100201802002030B50024F5
:101A980085B0009401940294039423460C480D49A0
:101AA8007822FFF709FF0128054601D005B030BDAF
:101AB800FFF70AFB0849094A094B4FF0FF30086055
:101AC80015601C6005B0BDE83040FFF767BB00BF7C
:101AD800691D0008E07E0008F00100205001002088
:101AE800F8010020024B1A6801321A60704700BFE3
:101AF800E8010020014B1868704700BFF80100207A
:101B08002DE9F84F3E4B1B68002B48D13D4B1A6816
:101B180001321A601E68002E5ED03B4A13689E424E
:101B28004AD33A4FDFF8FC90DFF8FC80384D0024A8
:101B38002CE0364A1368DB68D3F80CA0DAF80420E6
:101B48000AF1040B964258D35846FFF76BFADAF8B5
:101B580028200AF118000AB1FFF764FADAF82C0015
:101B6800012303FA00FE2A6800EB80004EEA020215
:101B7800594609EB80002A60FFF72EFAD8F80010C2
:101B8800DAF82C20CB6A9A4228BF01243B681B68EC
:101B9800002BCED11C4A4FF0FF33136011E01D4BD0
:101BA80000241A6801321A601B4B1B68002B18BFEF
:101BB80001242046BDE8F88FDFF86890DFF86880D8
:101BC8000024D8F80030DB6A03EB830359F823308C
:101BD800022B28BF0124E7E7104A0C4F104B396845
:101BE8001068386011601A6801321A60FFF728FE21
:101BF800054A13689E42DFD393E7034B1A60E0E778
:101C0800E8010020F8010020F00100204C0100202C
:101C1800440200208001002048020020FC0100202E
:101C2800F401002084010020EC0100202DE9F84F88
:101C3800FFF756FA2B4B1A68013A1A601B68002BFB
:101C480047D1294B1B68002B43D0DFF8ACB0274F96
:101C5800DA46DFF8A890DFF8A88020E0DAF80C3040
:101C6800DC68251D04F11800FFF7DCF92846FFF7AA
:101C7800D9F9E36A3A6806FA03FC03EB83002946BC
:101C88004CEA020309EB80003B60FFF7A5F9D8F89E
:101C98000030E16ADB6A994224BF154B1E60DBF80D
:101CA80000300126002BD9D1124C23686BB1236870
:101CB8005BB10125FFF724FF08B10D4B1D602368B8
:101CC800013B23602368002BF4D1094B1C68012CCD
:101CD80005D00024FFF716FA2046BDE8F88FFFF775
:101CE800E7F9F7E7E801002040020020440200205D
:101CF800480200208001002000020020840100200A
:101D0800EC01002038B518B9BDE83840FFF7D0B964
:101D18000F4B104A1968104C013119601568236877
:101D28000544181DFFF77EF938B12846FFF79CFDDA
:101D3800FFF77CFF0028E7D038BD23680121DA6A65
:101D4800064B01FA02F2196821EA02021A60ECE76E
:101D5800E8010020F8010020EC01002044020020E6
:101D68001C4E2DE988481C4D1C4CDFF87480DFF8A8
:101D78007490B24606E02368376801332360FFF7A2
:101D880055FF4FB92B68002BF5D1D9F80030012B3E
:101D9800F8D9FFF78DF9F5E7FFF7A2F9DAF80C3073
:101DA800D3F80CB00BF10400FFF73CF9D8F8003079
:101DB800094A013BC8F800301368013B1360FFF77C
:101DC800A1F9DBF83000FFF793FA5846FFF790FACD
:101DD800D8E700BF5801002054010020E801002086
:101DE8004002002084010020104B1B68D3B9104921
:101DF800104A0B601368B3FA83F3DBB20E49C3F1E0
:101E08001F0303EB830301EB8302536802F108010C
:101E18005B6853608B4204BF5B685360DA68074BAA
:101E28001A607047024B01221A607047E8010020CF
:101E3800480200204402002084010020EC01002018
:101E480038B5124C0D4621681831FFF7D1F82068D3
:101E58000430FFF7E7F848B923680121DA6A0C4B28
:101E680001FA02F2196821EA02021A606B1C06D014
:101E7800084B18682844BDE83840FFF7F5BC2168CE
:101E880005480431BDE83840FFF7A6B8EC0100204A
:101E980044020020F80100206C010020F8B5C36856
:101EA800DC6804F118052846FFF7BCF8134B1B68DB
:101EB800F3B9251D2846FFF7B5F8E36A01279F40C7
:101EC8000F4A1048166803EB8303294600EB83008A
:101ED80047EA06051560FFF77FF80B4BE26A1B68B7
:101EE800DB6A9A4283BF094B012018600020F8BDC5
:101EF80029460748FFF770F8EFE700BFE801002020
:101F08004402002084010020EC0100204802002047
:101F180000020020034A044B12681B6880E80C008A
:101F2800704700BFF4010020F8010020F8B50D4605
:101F38000446FFF7D5F82B681249581C0A681BD0CD
:101F4800114E20683768B842606801D082420ED2CC
:101F5800171ABB420BD936689B1A096818442860BF
:101F6800002526606160FFF7CDF82846F8BD0125F9
:101F7800FFF7C8F82846F8BD0025FFF7C3F828463C
:101F8800F8BD00BFF8010020F4010020014B012238
:101F98001A60704748020020F8B50446C0B1214DC8
:101FA800C36A2A68D26A934212D28269002A04DB81
:101FB8002A68D26AC2F1050282611B4E03EB8303D1
:101FC800626906EB83039A4203D02B68DB6AE362FB
:101FD800F8BD271D3846FFF725F808BBE36A03EB71
:101FE800830256F82220DAB9012202FA03F30F4AD3
:101FF800116821EA030313602B684FF0010CDB6AB8
:1020080015680CFA03FC03EB8300E3624CEA050352
:102018001360394606EB8000BDE8F840FEF7DCBFE8
:10202800024AE9E7EC010020840100204402002074
:102038002DE9F041044638B1036DC16AC26C013B19
:102048009142036500D013B10020BDE8F081061D60
:102058003046FEF7E7FF40B9E36A154803EB830211
:1020680050F82220DAB1134A01E01148114AE36C12
:10207800012505FA03F8D2F800C0C3F1050E03EBF9
:102088008307E36200EB870048EA0C033146C4F893
:1020980018E01360FEF7A0FF2846BDE8F081012292
:1020A80002FA03F3034A116821EA03031360DEE727
:1020B8008401002044020020044B1A681AB11A68EF
:1020C800116D013111651868704700BFEC010020DF
:1020D80010B4BDF90440401AE41A04FB00F4521A83
:1020E80094FBF2F4E01800B25DF8044B704700BFAF
:1020F80010B5044605F0ACFE431E002B08DD002297
:10210800A15CE05CA054E1540132013B9A42F7DB48
:1021180010BD00BF2DE9F04180EAE073A3EBE07346
:10212800114F9046002500E0254687FB0326DC1763
:10213800C4EBA60404EB8406A3EB460303F13006C4
:1021480023464E556C1C002BEED10028234602DA9C
:102158002D22AC1CCA5400230B550846FFF7C8FFB4
:10216800C8F80040BDE8F0816766666630B4134B76
:10217800134A1868134940F00100186058684FF472
:102188007F0402405A601A68002022F0847222F408
:1021980080321A601D684FF0006225F480251D60AA
:1021A8005D6825F4FE055D601D6825F0A0551D607D
:1021B8009C60D8628A6030BC704700BF0010024043
:1021C8000000FFF000ED00E0F0B5644C83B0237828
:1021D800032B4BD8DFE803F08902554C002503F0A8
:1021E8007BFD01268322F0271346284629460096C0
:1021F800019504F0AFFB32462B46594879210195E9
:10220800009704F06BFD32462B4656486F21009725
:10221800019504F063FD32462B465348652100972B
:10222800019504F05BFD32462B4650485B21009730
:10223800019504F053FD32462B464D485121009735
:10224800019504F04BFD04F0D7F94A4B47F6FF70AF
:1022580003F1140148F2010223F8020F8B421A8697
:10226800FAD103F007FC23780133237003B0F0BDE3
:10227800414B424A01201A6003B0BDE8F04000F02B
:1022880053BF002503F0FCFB01268322F0272846D4
:10229800294613460096019504F05CFB32462B460E
:1022A800019500973648792104F018FD32462B46EF
:1022B8000097019533486F2104F010FD32462B46F4
:1022C800009701952848652104F008FD2B46324601
:1022D8002D485B210097019504F000FD04F08CF96E
:1022E80023783344237003B0F0BD002501268322F0
:1022F800F0272846294613460096019504F02AFB44
:1023080032462B46019500971548792104F0E6FCE2
:1023180032462B46009701951C486F2104F0DEFCDD
:1023280032462B46009701950F48652104F0D6FCEC
:1023380032462B46009701950C485B2104F0CEFCF1
:102348002B460097019532460948512104F0C6FCF6
:1023580023783344237003B0F0BD00BF4C02002043
:10236800E87E0008347F00080C7F0008187F00080A
:10237800287F0008A2030020C00200203131000895
:10238800447F0008507F00082C7F0008F87E000872
:1023980070B5013882B00B2833D8DFE800F00B3273
:1023A8003234063232323232320602B0BDE8704080
:1023B800FFF70ABF0024012583221346F026204692
:1023C80021460095019404F0C5FA2A46234612488E
:1023D80079210194009604F081FC2A4623460F488F
:1023E8006F210096019404F079FC23462A460C4894
:1023F80065210096019404F071FC04F0FDF8094B86
:102408001C7002B070BD084B084A01201A6002B067
:10241800BDE8704000F088BE5C7F0008707F00084F
:10242800287F00084C020020C0020020313100083B
:102438002DE9F043012893B003464FD00AD304286E
:1024480005D12E4B2E4A01201A6000F06DFE13B004
:10245800BDE8F0832B4DDFF8B090DFF8B080792627
:102468000024202109220CA805F0A8FC59F8040032
:1024780003A902AAFFF74EFE28686968AA68029FA6
:1024880009AB07C3C7F1100E09A870443A4603A95F
:10249800FEF71CFD58F8040003A902AAFFF73AFE4C
:1024A800029A09ABC2F1150003A918440132FEF7DC
:1024B8000DFDF02200238DE80C003146043409A8F4
:1024C800012204F0D9FB302C05F10D05A6F10A060E
:1024D800C7D104F091F813B0BDE8F083002183223E
:1024E800084600930191134604F034FA20210A2289
:1024F80009A805F063FC04F07FF8ECE7C0020020AF
:1025080031310008E87F000824030020C4020020BD
:10251800F0B5244C054683B00F46162220212046EC
:1025280005F04CFC204B214E2B44324693F8D80042
:102538001F49FFF7EFFD32681D49C2F1040020442E
:102548000132EE0805F00705FEF7C0FCC7B1194BCC
:102558006FF009021B7802FB05F5002B06EB460617
:102568000CBF4FF47061F0210023F2000191063294
:10257800204605F16F01009304F07EFB03B0F0BD27
:102588006FF0090303FB05F106EB4606F200F0269F
:102598000632019720463B466F31009604F06CFBEB
:1025A80003B0F0BDA002002078030020B80200208C
:1025B8009C0200204D020020F0B583B0052804D805
:1025C800DFE800F01342677B8E0503B0F0BD554B82
:1025D80055491A780878013202F0010201211A706F
:1025E80003B0BDE8F040FFF793BF4E4F3B78002B98
:1025F800EBD04E4A00231068012102E00133192B69
:10260800E3D001FA03F20242F8D0474A484D107865
:10261800DBB22A1892F8D8C0002402E00134202C3A
:1026280078D02A1992F8D810414E9942F6D106442A
:102638000025012182F8D8C03D7086F8D830FFF710
:1026480067FF2946E0B2CBE7002501248322134621
:10265800284629468DE8300004F07CF9F0212B4605
:102668000091344879210195224604F037FB2E4B1E
:10267800284621461D70FFF74BFFE0B200210134C8
:10268800FFF746FF202CF8D103B0BDE8F04003F077
:10269800B3BF244B1C78002C97D1234D2B781E2BCD
:1026A80030D80133DBB2184601212B70FFF730FF19
:1026B800287821460138C0B292E71A4B1C78002CC2
:1026C80083D1194D2E78A6B1731EDBB218460121AD
:1026D8002B70FFF71DFF287821460130C0B27FE735
:1026E800154B164A01201A6003B0BDE8F04000F00F
:1026F8001BBD1F23184601212B70FFF709FF304629
:1027080031466DE7204601212C70FFF701FF214675
:102718001F2065E706440022012186F8D8303A7068
:102728005EE700BF4D0200204E0200205403002047
:1027380078030020807F0008C002002031310008A3
:1027480010B4244B93F90030032B18D0042B24D059
:10275800052B214A2ED092F9004003EB43031F4A70
:1027680004EB8303143302EB43039A8801EB8101E2
:10277800490001FB002098805DF8044B7047164B18
:10278800164A93F90030134493F8742000FB012192
:1027980083F874105DF8044B70470F4B0F4A93F998
:1027A8000030134493F82020104483F820005DF88B
:1027B800044B704792F90020084B043233F812405A
:1027C80001EB8101490001FB004023F812005DF88C
:1027D800044B70475102002050020020780300206B
:1027E800F0B589B006460D46174604A820210622F2
:1027F80005F0E4FA314B93F90040032C49D0042C3E
:1028080051D0052C3BD006EB46062D4A05EB860336
:1028180002EB430306AEB3F92C00314603AAFFF7D7
:1028280079FC039A04ABC2F1060031461844013220
:10283800FEF74CFBA7B1234B6FF009021B7802FB94
:1028480005F1002B0CBF4FF47062F02200230192B7
:1028580004A86F3100934E2204F00EFA09B0F0BDBF
:102868006FF0090303FB05F1F0220092019704A819
:102878003B466F314E2204F0FFF909B0F0BD104B12
:102888002A1D06AE33F81200314603AAFFF742FCB0
:10289800C7E70B4B06AE2B4493F97400314603AAE5
:1028A800FFF738FCBDE7064B06AE2B4493F9200032
:1028B800314603AAFFF72EFCB3E700BF5102002000
:1028C800780300204F02002070B50546104882B0FA
:1028D800C5EBC502F023002410448DE818007921C7
:1028E8002346482204F0FAF90A4E3378E1B25AB284
:1028F800A24208BF19464FF00002284608BF01222D
:102908000134FFF76DFF0A2CEFD102B070BD00BF94
:10291800907F0008500200202DE9F041013882B074
:1029280008281DD8DFE800F01F4C866D761C1C05B2
:102938009F00734B1B78002B40F0C780714B1878B1
:102948000138C0B2FF28C2B20ABF05201A70187039
:102958006D4B09221A7002B0BDE8F041FFF7B4BF11
:1029680002B0BDE8F0810025012483228DE8300003
:10297800284629461346F02703F0ECFF0195224626
:102988002B4600976148792104F0A8F9604CA846C5
:1029980004F182066F25204629468DE880010D3412
:1029A8000122002304F09AF9B442A5F10A05F2D1F4
:1029B8000020FFF789FF02B0BDE8F04103F01CBE1C
:1029C8004F4B1D78002D7CD14F4C21780131C9B275
:1029D800CBB25AB2092A237040F38480494B187845
:1029E8000130C0B2C2B2062A12BF1A701D70284642
:1029F80000232370FFF768FF02B0BDE8F04103F041
:102A0800FBBD444B444A01201A6002B0BDE8F041C6
:102A180000F08ABB3A4B3B491C783B4A013404F02E
:102A2800010408781C701178012202B0BDE8F04159
:102A3800FFF7D6BE324B1D78002D36D1324C2178A7
:102A48000139C9B2CBB223701B061FD42D4E012207
:102A58003078FFF7C5FE217830780131C9B22A46AF
:102A6800FFF7BEFEC8E7264B1B78002B38D1254A56
:102A780010780130C0B2C1B206290CBF13701170B2
:102A8800214A08BF18460023137064E71D4B1878C5
:102A98000138C0B2FF28C2B20ABF05201A701870E8
:102AA80009232370FFF710FFA6E701200146FFF76F
:102AB80047FE144A144B107819780122FFF790FE4C
:102AC8009AE74FF0FF300121F1E74FF0FF300A217C
:102AD800FFF736FE0B4A0C4B107819780122A4E751
:102AE8000120F4E7074E01223078FFF779FE2178BC
:102AF80030780139C9B22A46FFF772FE7CE700BF79
:102B08004F0200205102002050020020BC7F000824
:102B1800E87F0008C0020020313100082DE9F047A5
:102B2800234D244C244EDFF89490DFF894802F46F0
:102B38004FF0050A15E0B3F1804F29D0B3F1004FEB
:102B48000BD1002213464FF0020E1C49D8F80000A2
:102B580089F800E0FEF72CFD39680A202160FFF7AC
:102B6800D1F82268296822F0404221EA0203B3F131
:102B7800005F21F070412260336029600DD0DAD8FF
:102B8800B3F1805FE9D1002213464FF0040EDCE771
:102B9800002213464FF0030ED7E7002207491346D9
:102BA800D8F8000089F800A0FEF702FD3968D4E7DC
:102BB800540300205C020020540200205802002028
:102BC800BC02002030B5134B85B093F90600597943
:102BD80003F0DEFD012500238322184619460193E0
:102BE8000095134603F0B6FE0B4C0C4B28462360A9
:102BF80000F09AFA0A4D28680DF10F0164220023AB
:102C0800FEF78CFD012823680CBF9DF80F000020FB
:102C18009847F0E778030020C0020020313100080F
:102C2800BC02002010B5012184B000220A20FEF762
:102C38009DFC0C4B002418600B492346009401941A
:102C48000294039478220948FEF736FE0094019412
:102C5800029403942346064978220648FEF72CFE80
:102C680004B010BDBC020020C87F0008CD2B0008AE
:102C7800D47F0008252B000830B5002483B0F02548
:102C88002346009501941F487921032204F026F871
:102C98002346009501941C486521032204F01EF880
:102CA80023460095019419485B21032204F016F885
:102CB80023460095019416485121032204F00EF88A
:102CC80023460095019413484721032204F006F88F
:102CD80023460095019410483D21032203F0FEFF8E
:102CE8002346009501940D483321032203F0F6FF93
:102CF8000095019423460A482921032203F0EEFF98
:102D080003B030BD8480000894800008A0800008CB
:102D1800A4800008B8800008CC800008D88000088B
:102D2800E480000830B5044687B00D46002834D04A
:102D380006285B4961D00422A2404B79134016D083
:102D4800002D7AD0574B6FF009021B7802FB04F173
:102D5800002B0CBF4FF47062F02200230192653102
:102D6800009351486F2203F0B9FF07B030BD002D22
:102D780035D04C4A6FF00901127801FB04F1002AA2
:102D88000CBF4FF47062F0220192009365314748FE
:102D98006F2203F0A3FF07B030BD414B04A9187997
:102DA80005AA4FF020330393FFF7B4F9059A04A955
:102DB800013203A8FEF78AF8002D34D0394B00946D
:102DC8001B7803A8002B0CBF4FF47062F02201920D
:102DD800234665216F2203F04FFF07B030BD6FF027
:102DE800090303FB04F1F022009201952B4665319B
:102DF8002E486F2203F072FFB7E78B79012B2AD098
:102E0800002B98D1002D41D0264A009312782748EC
:102E1800002A0CBF4FF47062F022019229216F2220
:102E280003F05CFFA1E7F0220092019503A82B466E
:102E380065216F2203F020FF97E76FF0090101FB7E
:102E480004F1F022009201952B46653116486F2255
:102E580003F044FF89E77DB1124A00231278124833
:102E68009A420CBF4FF47062F0220192009329211C
:102E78006F2203F033FF78E7F022009201952B468A
:102E8800094829216F2203F029FF6EE7F0220092FA
:102E980001952B46054829216F2203F01FFF64E79F
:102EA8007803002064020020F4800008F8800008FD
:102EB80038B5084D00242B68E0B29C424FF0000161
:102EC80004F1010408BF0121FFF72CFF072CF2D100
:102ED80038BD00BF6002002030B5013883B0042837
:102EE8000CD8DFE800F01629030D3700454B197898
:102EF800002947D0444B1A79002A3DD103B030BD90
:102F0800424B434A01201A6003B0BDE8304000F04C
:102F18000BB9832200230124184619460193009413
:102F2800134603F017FDFFF7A7FEFFF7C1FF03B035
:102F3800BDE8304003F060BB324B1C78002C2DD02C
:102F4800314B1A79092AD9D83249013208781A71CD
:102F580001210CE02F4B1B68062B49D0002B2BD1ED
:102F6800284A117801B9012313700020012103B008
:102F7800BDE83040FFF7D6BE2649013A08781A71F5
:102F88000121F4E7234C2078FFF7CCFE2368013BAE
:102F98004DBF06202360D8B22060E7E71D4D2146CB
:102FA8002878FFF7BFFE286801300628D5BF2860BB
:102FB8002C60C0B22046D9E7042202FA03F3124A71
:102FC80051794B40DBB21846537103F009FB0023DB
:102FD800832201241846194601930094134603F0EE
:102FE800B9FCFFF749FE03B0BDE83040FFF760BF0A
:102FF800054B9A7982F0010210469A7103F07EFA25
:10300800E5E700BF6402002078030020C00200202A
:1030180031310008600200202DE9F04F012300241F
:1030280083B006460F468DE81800204621467B22CD
:10303800832303F08FFCBE4234D8A146DFF87080AA
:10304800DFF870A0344640F6FF7B0BE001345AF8F5
:103058002000CDF800B0CDF80490E4B203F03EFEB5
:10306800A7421FD398F80030A51BEDB2E900A34290
:1030780004EB4400C1F173014FF001024FF000036B
:10308800E4D14FF47063E900013401935AF8200049
:10309800C1F17301CDF800900023E4B203F01EFEE5
:1030A800A742DFD203B0BDE8F04F03F0A5BA00BFD6
:1030B80008000020E4810008F0B4194B194C1F786F
:1030C80007EB470304EB83031D7907703B4602E0D7
:1030D800D3B203703BB15A1E02EB420604EB8606DC
:1030E8003679AE42F4D0FA1A0A2A05DD0A33DBB281
:1030F800FA1A0A2AFADC03700B7807E00678093610
:10310800B342D3B20ADC212B0B7007D85A1C02EB4E
:10311800420604EB86063679AE42EFD0F0BC704723
:1031280008000020E48100082DE9F043734D85B0C4
:103138002C7801388DF80E408DF80F4004283ED8C1
:10314800DFE800F062037B40A90004EB44086C4F01
:103158004FEA880807EB08039E7904A800F8026D77
:103168000DF10F012E70FFF7A7FF9DF80E30DFF865
:103178008C919E4200F0A4801C1B40F6FF72002533
:10318800E10057F8080073318DE824002B4601222E
:1031980003F0A4FD99F800309DF80E1003EB4302EC
:1031A80057F82200CB1AD9004FF470622B467331BE
:1031B80001920095012203F091FD03F01DFA05B07C
:1031C800BDE8F0830DF10E000DF10F01FFF774FF5C
:1031D8009DF80F304A4A03EB430302EB8303DB7984
:1031E8000DF10E000DF10F012B708DF80F308DF8D9
:1031F8000E30FFF761FF9DF80E009DF80F10FFF7E6
:103208000BFF05B0BDE8F083832200230124184694
:10321800019319460094134603F09CFB0DF10E0030
:103228000DF10F01FFF748FF9DF80E009DF80F10F4
:10323800FFF7F2FE05B0BDE8F08304EB4408304E1A
:103248004FEA880806EB08035F790DF10F010DF1CD
:103258000E002F70FFF730FF9DF80F10DFF89C90DD
:10326800B94233D09DF80E1040F6FF730C1B0025B1
:10327800E10056F8080073318DE8280001222B463A
:1032880003F02CFD99F800309DF80E1003EB430273
:1032980056F8220086E71A4A04EB440402EB840439
:1032A800A368C3B1E379174903EB430002EB80023B
:1032B800926801200A602B70904705B0BDE8F08342
:1032C80030469DF80F10FFF7A7FE78E79DF80E002F
:1032D800FFF7A2FE73E7E37904A800F8023D0DF1B9
:1032E8000F012B708DF80F30FFF7E6FE9DF80E00EA
:1032F8009DF80F10FFF790FE61E700BF080000205F
:10330800E4810008C002002070B5042882B0044699
:1033180036D0052803D001283BD002B070BD304C10
:103328000A23002504F1080023716571A57102F0D4
:10333800ADFB2B46E21882F8C8300133082BF9D1CF
:103348000023E21882F8D0300133082B244AF8D140
:103358000B230A2182F8CF3082F8CE100023E2181E
:1033680082F8D8300133202BF9D11E4B1E4C184659
:10337800236003F04BF821681948F82203F05CF841
:103388001A4B1B4A01201A6002B0BDE87040FFF7D3
:10339800CBBE00258322F0262846294613468DE811
:1033A800300003F0D7FA2B462246019500961148C3
:1033B800792103F093FC2B462246009601950E488E
:1033C8006F2103F08BFC009601952B4622460B4893
:1033D800652103F083FC02B0BDE8704003F00CB92E
:1033E8007803002000FC010874030020C0020020BC
:1033F800313100088084000894840008287F000880
:1034080070B5042882B0044610D0052803D00128DE
:1034180015D002B070BDF82003F02AF81B4C034603
:103428000146F8221A48236003F006F8194B1A4A95
:1034380001201A6002B0BDE87040FFF775BE002594
:103448008322F0262846294613468DE8300003F0EB
:1034580081FA2B462246019500961048792103F0FF
:103468003DFC2B462246009601950D486F2103F03E
:1034780035FC009601952B4622460A48652103F043
:103488002DFC02B0BDE8704003F0B6B8740300200C
:1034980078030020C002002031310008A48400080D
:1034A800B8840008287F000800B5002883B0144BB2
:1034B80001F104010FDD33F9112000213B230093B2
:1034C8000B46FEF705FE3B28A8BF3B2080B200B2A2
:1034D80003B05DF804FB33F811100022494209B229
:1034E80000926FF03A03FEF7F3FD6FF03A0398424B
:1034F800B8BF184680B200B203B05DF804FB00BF45
:10350800780300202DE9F047484E86B000F14007C7
:1035180003AA0546884636F9170004A9FEF7FAFDFE
:10352800039A0023042A8DF8153011DC013A03921E
:1035380004AB0DF10B012020002A14DB06AC144467
:1035480014F8084C013A1C71013B8B42F4D10392E8
:10355800B8F1000F09D0B8F1010F37D003F04CF8DB
:1035680006B0BDE8F0871871EEE7DFF8C4904FF0B9
:10357800010AB9F900300922591ECDF804805344D4
:10358800CDF800A0022003F0E5F9294636F9170026
:10359800FFF78AFF463085B22BB2F024CDF800A0A1
:1035A800591E0194534402200922A9F8005003F03F
:1035B800D1F904A819215A2202238DE8100103F039
:1035C8005BFB03F019F806B0BDE8F087DFF86490FC
:1035D8000024B9F900200923501ECDF800800132DB
:1035E8000194022103F0B6F936F917002946FFF7CE
:1035F8005BFF463086B232B2F025CDF80080501E0F
:103608000195013202210923A9F8006003F0A2F90B
:1036180004A86A210F2202230095019403F02CFBD1
:1036280002F0EAFF06B0BDE8F08700BF780300208B
:103638000A0000200C00002070B5013882B0042870
:1036480041D8DFE800F0034B5C4267000024012604
:103658008322F0251346204621460096019403F064
:1036680079F923464248792114220194009503F000
:1036780035FB0A210A46304682238DE8300003F0E4
:1036880069F90A200346314682228DE8300003F0AA
:1036980061F946210B460A201422009503F0F6F83A
:1036A8004620024614230A21009503F0EFF802F0A1
:1036B800A3FF20462146FFF725FF30463146FFF796
:1036C80021FF2C4B1C7002B070BD2B4B2B4A0120E4
:1036D8001A6002B0BDE87040FFF726BD254B187888
:1036E800274B012835D0B3F88020002001460A3244
:1036F800A3F8802002B0BDE87040FFF703BF1D4B60
:1037080018781F4B01282BD0B3F8802000200146E1
:103718000A3AEDE7174B1C78013404F001041C70D9
:103728005CB9F0238DE8180011487921142223464A
:1037380003F0D4FA20462146DCE7F02200238DE886
:103748000C0010487921142203F0C8FA0120014620
:10375800D0E7B3F8822001460A3AA3F88220C9E7E5
:10376800B3F8822001460A32A3F88220C2E700BFDC
:10377800C884000865020020C0020020313100081A
:1037880078030020D0840008704700BF10B50446B5
:1037980001F0E8FB064BA3FB0020800900F072F85B
:1037A80021464FF0FF30002200F028F8002010BD1D
:1037B800D34D621008B5074B03201A6842F0100277
:1037C8001A6000F009F80F20FFF7E0FFFFF7DCFFB1
:1037D800002008BD00200240074A4FF6FF01D368C9
:1037E80000F007000B4043F0BF6343F4003343EAA3
:1037F8000023D360704700BF00ED00E030B4194BE0
:10380800DC68C4F30224C4F10703251D042B28BF78
:103818000423062D19D9033C0125A540013D2A4062
:10382800012505FA03F3013B194001FA04F40028C5
:1038380044EA02040CDB240100F16040E4B200F524
:10384800614080F8004330BC704700221446E7E727
:10385800054B00F00F002401E4B203441C7630BC91
:10386800704700BF00ED00E0FCEC00E000F01F0333
:1038780001229A40024B400943F82020704700BFBC
:1038880000E100E00138B0F1807F30B40CD2084B81
:10389800084CF02500220721586084F823509A60CC
:1038A8001960104630BC7047012030BC704700BF1B
:1038B80010E000E000ED00E02DE9F00F002582B0F7
:1038C8006E4FDFF8C0C16E4C2B4603E00133102B5E
:1038D80000F0898001229A400E6816409642F5D180
:1038E8004A68122A00F0A48000F28C80022A00F0B4
:1038F800A48040F28280032A00F09D80112A01D121
:10390800CD680435FF2E72D802464FEA83084FF07F
:103918000F0909FA08FA05FA08F8D2F800B02BEAF4
:103928000A0A4AEA0808C2F800804A68D200CDD5D7
:1039380003F003084FEA880809FA08F9D7F818A02D
:1039480023F003024AF0010AC7F818A0D7F818A014
:1039580002F180420AF0010ACDF804A002F5803293
:10396800DDF804A0D2F808A060452AEA090977D052
:10397800DFF814A1504576D0DFF810A1504577D074
:10398800DFF80CA150450CBF4FF0030A4FF0040AB2
:103998000AFA08F848EA0908C2F808804A680133B0
:1039A80012F4803F226814BF3243B24322604A684F
:1039B80012F4003F626814BF3243B24362604A683F
:1039C80012F4801FA26814BF3243B243A2604A684F
:1039D80012F4001FE26814BF164322EA0606102BF1
:1039E800E6607FF477AF02B0BDE8F00F7047A3F14F
:1039F80008084FEA8808021D89E7AAB1012A81D17F
:103A0800CD687FE7DFF88C8042450DD018D9DFF804
:103A180088A0524508D0DFF88480424504D0A8F534
:103A2800801842457FF46EAF8A689AB9042569E721
:103A3800CD680C3566E7002564E7CD68083561E791
:103A4800A8F580184245EFD008F5803842457FF444
:103A580059AFE9E7012A0CBF06614661082551E71D
:103A68004FF0000896E74FF0010A0AFA08F891E7C4
:103A78004FF0020A0AFA08F88CE700BF001002406B
:103A88000004014000080140000C01400010014002
:103A98000014014000002110000031100000321015
:103AA800836819420CBF00200120704702B909043D
:103AB80001617047C3685940C1607047F0B504465A
:103AC80087B0002866D090F8713303F0FF02002B0E
:103AD8005BD0032384F871332646206801F072FB1B
:103AE80056F810EB6F4635460FCD0FC72B68251DCE
:103AF8003B6095E80E00704601F0A8FF00212068A1
:103B080001F068FB002211462346012083F8282093
:103B1800DA8501320F2A83F8290083F82B101963FC
:103B28005963D96303F11C03F0D1002211462346DF
:103B380083F8CC21DA8501320F2A83F8CD1183F876
:103B4800CF11C3F8D411C3F8D811C3F8E0114FF05E
:103B5800000703F11C03EBD1EE460FCED4F800C0EA
:103B6800AEE80F0033686046CEF8003095E80E00E6
:103B780001F04AFB012384F82470206884F871332B
:103B880001F0C4FE384607B0F0BD80F8702303F09A
:103B980061FB9EE7012007B0F0BD00BF10B590F8AB
:103BA80070330446012B01D1022010BD012180F899
:103BB800701303F05BFC206801F09AFE206801F0A6
:103BC800F9FA002084F8700310BD00BF2DE9F04F0A
:103BD800076883B00446384601F0D2FE10B103B03E
:103BE800BDE8F08F206801F09FFE0028F7D020681C
:103BF80001F09AFE800702D5236802225A612068E4
:103C080001F092FE010300F14E814FF00008206898
:103C180001F08AFE430300F1C080206801F084FEB1
:103C28000028C0F2CC81206801F07EFE050508D589
:103C3800D7F80838D80700F1AB8123684FF4006241
:103C48005A61206801F070FEC1046ED4206801F04A
:103C58006BFE820450D4206801F066FEC30619D5B5
:103C680023689A6922F010029A613D6A05F00F03F1
:103C7800C3EBC303C5F3434204EB8303022A03F5F2
:103C8800E67600F08981062A2AD023689A6942F0EC
:103C980010029A61206801F047FE070700F1498188
:103CA800206801F041FEC60200F13981206801F068
:103CB8003BFE850200F12981206801F035FE4000B5
:103CC80000F11B81206801F02FFE410787D523688A
:103CD8005D686A0700F157815A6815435D607EE7A1
:103CE800384604F55D71082201F080FDB369C5F31B
:103CF8000A152B44B361C8E7206801F045FE236824
:103D08000321D868402220F47050D8602368E1600D
:103D18002261DA68204642F4A052DA6003F0E4FA3D
:103D280023684FF400525A6195E707F500656B6800
:103D3800002123F001036B60206801F0F3FA636847
:103D480063B107F510630022FF219960C3F80812D8
:103D580060680132904203F12003F6D84FF0FF3338
:103D6800AB61EB6904F55D7143F00113EB616B69BD
:103D780043F00B036B612B6943F00B032B61D7F8FE
:103D8800003823F4FE63C7F80038206801F018FEF5
:103D980023684FF480525A6158E7206801F0D0FD3B
:103DA8008246002800F01981254607F5106B4FF070
:103DB80000088DE8900009E05FEA5A0A08F1010856
:103DC80005F11C050BF1200B00F0BA801AF0010F69
:103DD800F2D0009B5FFA88F73946186801F0C2FDF7
:103DE800C607044600F1AF80200744BF0823CBF87C
:103DF8000830E10644BF1023CBF80830620644BF00
:103E08004023CBF80830A30744BF0221CBF80810A1
:103E18002606D1D5009AE96BD2F80090D5F840C0B3
:103E28002B6B09F51064CCEB010204EB48149A42A1
:103E380034BF16461E46D4F818E0F01C48BFB01D23
:103E48001FFA8EFEBEEBA00F21D961451FD9F1B133
:103E5800696B184604E0EA6B9A4218D9286BD21AA3
:103E6800824234BF16460646B3B23A46484601F087
:103E7800ABFC696B2B6C3144334469632B64A069D8
:103E8800F21C80B248BFB21DB0EBA20FE3D8002EDF
:103E980092DC012101FA08F3D9F8342822EA030355
:103EA800C9F8343888E7206801F042FD0546002843
:103EB8003FF4ABAE07F530664FF000084FF010093D
:103EC80006E06D0808F1010806F120063FF49FAEF0
:103ED800EA07F6D55FFA88FB5946206801F038FDF5
:103EE80010F0010F824647D11AF0080F3ED11AF0A0
:103EF800100F18BFC6F80890E3E7204603F028FA29
:103F080023684FF080425A61DCE65FFA88F1204668
:103F180003F016FA23684FF400125A61CCE62046E3
:103F28005FFA88F103F010FA23684FF480125A619F
:103F3800BCE6204603F0D4F9236808225A61AFE6AC
:103F48009DE8900069E6012101FA08F201990098BC
:103F580001F50063D1F8341821EA02025A630122FC
:103F68003946CBF8082003F0B1F93DE7204603F0C5
:103F78009BF90822B260BAE70121B1602046594690
:103F880003F09AF9B0E7204603F0E6F92368A3E6C0
:103F9800204603F0B9F950E647F6F0732B40002BA2
:103FA8003FF473AE1D092A463846F16801F01EFC3D
:103FB800F268B3692A442B44F260B36165E6D7F826
:103FC8000428204622F00102C7F8042803F0B4F9B7
:103FD80023684FF000425A6125E680461DE600BF7F
:103FE80010B590F870330446012B01D1022010BDA2
:103FF80084F82410012380F87033006801F068FC0D
:10400800002084F8700310BD70B5CEB205463006A6
:104018001BD4C1EBC10405EB840404F5E674F6096E
:1040280066702170A260E37095F87033012B01D19E
:10403800022070BD0123214685F87033286801F0FD
:1040480083F9002085F8700370BD01F07F01C1EB92
:10405800C10405EB84042834E1E700BFCAB21306A3
:1040680010B5044619D4C1EBC10300EB830303F573
:10407800E673D2095A70197094F87023012A01D195
:10408800022010BD0122194684F87023206801F02F
:10409800A7F9002084F8700310BD01F07F01C1EB7F
:1040A800C10300EB83032833E3E700BF70B501F0D9
:1040B8007F050446C5EBC50004EB800000F5E671FA
:1040C8000026CA604B618E614E7080F8CC5194F81E
:1040D8007033012B10D0012384F8703320682DB180
:1040E80001F0BCF9002084F8700370BD01F0CEFA2D
:1040F800002084F8700370BD022070BDF8B501F08F
:104108007F05C5EBC5018900044601F12800211887
:1041180001260027CA604B618F614E70255494F8C0
:104128007033B3420FD084F8706320682DB101F06A
:1041380095F9002084F87003F8BD01F0A7FA002073
:1041480084F87003F8BD0220F8BD00BFCAB238B5C4
:10415800130604461CD4C1EBC10300EB830303F52B
:10416800E6730D46D20901215A701D70997094F8B2
:1041780070238A4201D1022038BD84F87013206868
:10418800194601F047FB5DB1002084F8700338BD83
:1041980001F07F05C5EBC50300EB83032833E1E796
:1041A800206804F55D7101F00BFCEDE7CAB238B583
:1041B800130604461BD4C1EBC10300EB830303F5CC
:1041C800E673D20900255A7019709D7094F870230F
:1041D800012A01D1022038BD0122194684F8702332
:1041E800206801F045FB84F87053284638BD01F07B
:1041F8007F01C1EBC10300EB83032833E1E700BF74
:1042080030B405686B6AD1B1A86A013903EB104074
:104218000CD000242346403405EB84040133646841
:10422800DBB28B4200EB14401C46F4DB403105EB5B
:10423800810540EA0240686030BC0020704743EACC
:104248000243AB62002030BC704700BF0368002007
:10425800596270472DE9F041036882B0DE070546D0
:104268003FD5BF4A516801F00C01042900F0808154
:10427800516801F00C01082900F07681B84B4FF421
:1042880000341A681E4622F480321A601A6822F432
:1042980080221A6002F0BCFD074615E094FAA4F3E8
:1042A800B3FA83F3726A94FAA4F3B3FA83F303F0CC
:1042B8001F0322FA03F3D90740F1578202F0A8FD41
:1042C800C01B642800F2048294FAA4F3B3FA83F3BF
:1042D800DBB243F020035B09012BDFD13268E2E750
:1042E8002B68980744D59E4B5A6812F00C0F00F0C3
:1042F800CC805A6802F00C02082A00F0C2806B6970
:104308000122002B00F0AC8292FAA2F3B3FA83F3F5
:10431800DBB29B0003F1844303F584031A6002F0C7
:1043280077FD022407468E4E15E094FAA4F3B3FAFB
:1043380083F3726A94FAA4F3B3FA83F303F01F03C6
:1043480022FA03F3DB0700F1FD8102F061FDC01BD7
:10435800022800F2BD8194FAA4F3B3FA83F3DBB226
:1043680043F020035B09012BDFD13268E2E72B68B9
:10437800190755D45C0700F12081EB6A002B00F087
:10438800AA80774A5168CC0305D5516801F00C0121
:10439800082900F01283022B40F02782704B1A681C
:1043A800D10006D5DA6A6B6B02F0F0029A4240F04F
:1043B8008E804FF0806393FAA3F3B3FA83F3DBB2F2
:1043C8009B0003F1844303F5840300221A6002F082
:1043D8001FFD4FF000640746614E15E094FAA4F300
:1043E800B3FA83F3726A94FAA4F3B3FA83F303F08B
:1043F8001F0322FA03F3DA0740F1E48202F008FD12
:10440800C01B642800F2648194FAA4F3B3FA83F31E
:10441800DBB243F020035B09012BDFD13268E2E70E
:10442800EB69002B00F05881012393FAA3F1B1FA4C
:1044380081F14C4AC9B242F8213002F0E9FC022469
:104448000746474E05E002F0E3FCC01B022800F2D5
:104458003F8194FAA4F3B3FA83F394FAA4F3B3FA7A
:1044680083F3726A94FAA4F3B3FA83F303F01F0395
:1044780022FA03F3DA07E6D5012002F0CBFC2B6819
:1044880078E75B68D9033FF53AAF022393FAA3F2C2
:10449800B2FA82F2D2B242F020025209012A00F0A6
:1044A8004E8193FAA3F3B3FA83F32D4B5A6A02238E
:1044B80093FAA3F3B3FA83F303F01F0322FA03F387
:1044C800DA0740F13F816B69012B00F03B81012045
:1044D80002B0BDE8F0812B6A002B00F02681204E47
:1044E800726802F00C02082AF1D0022B4FF0807398
:1044F80000F02F8293FAA3F3B3FA83F3DBB29B00A5
:1045080003F1844303F5840300221A6002F080FC5F
:1045180035464FF00074064615E094FAA4F3B3FA52
:1045280083F36A6A94FAA4F3B3FA83F303F01F03DC
:1045380022FA03F3DB0740F1F88002F069FC801BE4
:10454800022800F2C58094FAA4F3B3FA83F3DBB22D
:1045580043F020035B09012BDFD12A68E2E700BFA3
:1045680000100240800442425268D4037FF586AEB0
:104578004FF4003292FAA2F1B1FA81F1C9B241F0D6
:1045880020014909012900F0D48092FAA2F2B2FA76
:1045980082F2BC4A516A4FF4003292FAA2F2B2FA9D
:1045A80082F202F01F0221FA02F2D0077FF599AEDB
:1045B800AA68002A7FF495AE89E7B24AB24BD1695E
:1045C8001C4641F08051D161D26902F080520192BB
:1045D800019A1A6842F480721A6002F019FC0646C1
:1045E80004E002F015FC801B642871D82368D80504
:1045F800F7D5A44B02241A6A1E4622F001021A6259
:104608001A6A41F2883822F004021A6202F000FCA9
:10461800074604E002F0FCFBC01B404558D894FA5A
:10462800A4F3B3FA83F394FAA4F3B3FA83F3DBB2F3
:1046380043F040035B09022B0CBF326A726A94FA9A
:10464800A4F3B3FA83F303F01F0322FA03F3D907A1
:10465800E0D42B69012B00F07182002B40F06182BD
:1046680003F1804303F504331A6A22F001021A6247
:104678001A6A22F004021A622B69002B00F0E58105
:1046880002F0C6FB7F4E8046022441F2883794FA36
:10469800A4F3B3FA83F394FAA4F3B3FA83F3DBB283
:1046A80043F040035B09022B0CBF326A726A94FA2A
:1046B800A4F3B3FA83F303F01F0322FA03F3DA0730
:1046C8003FF55BAE02F0A4FBC8EB0000B842DED9B0
:1046D800032002B0BDE8F081012191FAA1F1B1FAFD
:1046E80081F16A4AC9B242F8213002F091FB0224F2
:1046F8000746644E04E002F08BFBC01B0228E7D893
:1047080094FAA4F3B3FA83F394FAA4F3B3FA83F311
:10471800726A94FAA4F3B3FA83F303F01F0322FA3C
:1047280003F3DB07E7D42B6824E6002002B0BDE8DA
:10473800F08102F1804202F5805211682BE7514B5B
:104748001A68B4E64F4BF820196890FAA0F0B0FA4E
:1047580080F0AA69C0B2824021F0F8010A431A60C9
:104768002B6819077FF506AE5AE6AB68B3F5803FAC
:1047780000F0E6801BB1B3F5A02F00F0D480414BC8
:104788001A6822F480321A601A6822F480221A60A9
:10479800AB68002B00F09E8002F03AFB4FF4003427
:1047A8000746384E15E094FAA4F3B3FA83F3726A15
:1047B80094FAA4F3B3FA83F303F01F0322FA03F382
:1047C800DA073FF58DAD02F023FBC01B64283FF6E6
:1047D8007FAF94FAA4F3B3FA83F3DBB243F0200378
:1047E8005B09012BDFD13268E2E7264E4FF0806388
:1047F800F26A22F48032F26293FAA3F3B3FA83F3F3
:10480800DBB29B0003F1844303F5840300221A60A2
:1048180002F0FEFA4FF00064074615E094FAA4F39C
:10482800B3FA83F3726A94FAA4F3B3FA83F303F046
:104838001F0322FA03F3D8077FF54DAE02F0E8FA1A
:10484800C01B64283FF644AF94FAA4F3B3FA83F389
:10485800DBB243F020035B09012BDFD13268E2E7CA
:1048680092FAA2F2B2FA82F2D2B2920002F1844231
:1048780002F58402136002F0CBFA02240746014EC7
:104888001CE000BF0010024000700040800442425B
:1048980094FAA4F3B3FA83F3726A94FAA4F3B3FA1A
:1048A80083F303F01F0322FA03F3D8077FF55FAD04
:1048B80002F0AEFAC01B02283FF60AAF94FAA4F33E
:1048C800B3FA83F3DBB243F020035B09012BDFD19A
:1048D8003268E2E702F09CFA4FF400340746A14E32
:1048E80015E094FAA4F3B3FA83F3726A94FAA4F382
:1048F800B3FA83F303F01F0322FA03F3DB077FF510
:10490800EFAC02F085FAC01B64283FF6E1AE94FADA
:10491800A4F3B3FA83F3DBB243F020035B09012B62
:10492800DFD13268E2E703F18043A3F53C331A682C
:1049380042F480221A601A6842F480321A6027E72B
:1049480003F1804303F588331A6842F480321A6011
:104958001EE793FAA3F3B3FA83F3DBB29B0003F1E8
:10496800844303F5840300221A6002F051FA4FF0E1
:104978000074074615E094FAA4F3B3FA83F3726A55
:1049880094FAA4F3B3FA83F303F01F0322FA03F3B0
:10499800D90740F1838002F03BFAC01B02283FF69A
:1049A80097AE94FAA4F3B3FA83F3DBB243F020038F
:1049B8005B09012BDFD13268E2E7D26AD0033FF509
:1049C80086ADE8E4674E6B6BF16A4FF0806221F0C8
:1049D800F0010B43F362F16A2B6B21F470610B4316
:1049E800F36292FAA2F3B3FA83F3DBB29B0003F10A
:1049F800844303F5840301221A6002F009FA4FF098
:104A08000064074615E094FAA4F3B3FA83F3726AD4
:104A180094FAA4F3B3FA83F303F01F0322FA03F31F
:104A2800DB073FF558AD02F0F3F9C01B64283FF6E9
:104A38004FAE94FAA4F3B3FA83F3DBB243F0200346
:104A48005B09012BDFD13268E2E702F0E1F9454E5C
:104A58008046022441F2883794FAA4F3B3FA83F328
:104A680094FAA4F3B3FA83F3DBB243F040035B098F
:104A7800022B0CBF326A726A94FAA4F3B3FA83F376
:104A880003F01F0322FA03F3DB077FF576AC02F08D
:104A9800BFF9C8EB0000B842DED919E66A6AB2F578
:104AA800803F51D02F4BA86A5C684FF0807124F486
:104AB8007414204302435A6091FAA1F2B2FA82F2C6
:104AC800D2B2920002F1844202F5840201211160FF
:104AD8001D4602F09DF94FF00074064615E094FA61
:104AE800A4F3B3FA83F36A6A94FAA4F3B3FA83F3E8
:104AF80003F01F0322FA03F3DA073FF516AE02F0BC
:104B080087F9801B02283FF6E3AD94FAA4F3B3FAC1
:104B180083F3DBB243F020035B09012BDFD12A6862
:104B2800E2E7052B0F4B1A6A7FF49FAD42F00402AF
:104B38001A621A6A42F001021A629DE5094B1A6A62
:104B480042F001021A6297E5064B6A68D96A0A437D
:104B5800DA62D96AEA6821F00F010A43DA626A6AFE
:104B6800A0E700BF001002402DE9F041BA4B0C4607
:104B78001A68054602F007028A420CD21A6822F027
:104B880007020A431A601B6803F007038B4275D0BB
:104B98000120BDE8F08103689E0707D5AF4B826806
:104BA800596821F0F0010A435A600368D8073FD5D5
:104BB8006B68012B00F0C580022B00F0DA8002221E
:104BC80092FAA2F1B1FA81F1C9B241F02001490982
:104BD800012900F0148192FAA2F2B2FA82F29F4AF5
:104BE800516A022292FAA2F2B2FA82F202F01F028B
:104BF80021FA02F2D107CBD5984F41F288387A686A
:104C080022F0030213437B6002F002F96B68064648
:104C1800012B00F08580022B06D18CE002F0F8F819
:104C2800801B404500F2A2807B6813F00C0FF5D181
:104C3800894B1A6822F0070222431A601B6803F0A6
:104C48000703A342A4D12B685A0707D5834BEA6808
:104C5800596821F4E0610A435A602B681B0707D59D
:104C68007E4B29695A6822F4605242EAC1025A60AE
:104C78000F20FEF78BFD0020BDE8F081036899073F
:104C880007D5764B8268596821F0F0010A435A60CB
:104C98000368DA07D8D56B68012B00F0B380022BC4
:104CA80000F09280022292FAA2F1B1FA81F1C9B21F
:104CB80041F020014909012900F0BF8092FAA2F2CF
:104CC800B2FA82F2654A516A022292FAA2F2B2FA62
:104CD80082F202F01F0221FA02F2D7077FF558AFDD
:104CE8005E4E41F28837726822F003021343736004
:104CF80002F08EF86B680446012B54D0022B05D1C4
:104D08005CE002F085F8001BB8422FD8736813F0F6
:104D18000C0FF6D197E702F07BF8801B404525D8A9
:104D28007B6803F00C03042BF5D181E702F070F8DF
:104D3800801B40451AD87B6803F00C03082BF5D17B
:104D480076E74FF4003292FAA2F1B1FA81F1C9B2D2
:104D580041F020014909012969D092FAA2F2B2FA78
:104D680082F23E4A516A4FF400323BE70320BDE825
:104D7800F0814FF0007292FAA2F1B1FA81F1C9B252
:104D880041F020014909012933D092FAA2F2B2FA7E
:104D980082F2324A516A4FF0007223E702F038F883
:104DA800001BB842E2D8736803F00C03042BF5D15A
:104DB80049E702F02DF8001BB842D7D8736803F012
:104DC8000C03082BF5D13EE74FF0007292FAA2F1DE
:104DD800B1FA81F1C9B241F020014909012935D060
:104DE80092FAA2F2B2FA82F21C4A516A4FF00072A9
:104DF8006BE702F1785202F504321168CBE7174AE3
:104E08001168EEE64FF4003292FAA2F1B1FA81F19C
:104E1800C9B241F020014909012911D092FAA2F240
:104E2800B2FA82F20D4A516A4FF400324DE702F1AC
:104E3800804202F58052116895E7084A116843E7F5
:104E480002F1804202F580521168EDE702F17852D2
:104E580002F504321168C9E7002002400010024040
:104E680070B43C4B89B059689A68186801AC07C49B
:104E780053F80C0F04AC9A685968DB68364D0FC4B8
:104E88006B6803F00C02082A53D14FF4701292FA9F
:104E9800A2F2B2FA82F2D2B203F4701121FA02F24B
:104EA80008A80244DC0312F81C2C46D5EB6A0F2133
:104EB80091FAA1F1B1FA81F1C9B203F00F03CB4025
:104EC800E96A0344C90313F8103C3CD5EC6AF026A0
:104ED80096FAA6F6B6FA86F64FF47060F6B2E96A64
:104EE80090FAA0F0B0FA80F004F0F004C0B2F440F8
:104EF80001F47061C140194801340231B0FBF4F08B
:104F080001FB00F0B0FBF3F002FB00F04FF470136C
:104F180093FAA3F3B3FA83F34FF45011DBB221FAF7
:104F280003F308A90B4413F81C3C934202D1400830
:104F380000E00A4809B070BC7047094800FB02F05D
:104F480009B070BC70470548B0FBF3F002FB00F0F5
:104F5800DCE700BFB87E00080010024000127A00AB
:104F680000093D0008B5FFF77BFF084AF0235268A7
:104F780093FAA3F3B3FA83F3DBB202F0F002DA4058
:104F88000349044B8A5CD040186008BD00100240F9
:104F9800D8840008040000202DE9F041036882B09D
:104FA800DA07044600F18480990707D57E4BA2688A
:104FB800596821F440410A435A6023685A0707D5C3
:104FC800794BE268D96A21F400310A43DA6223682E
:104FD8001F0706D5744B2269D96A21F480210A4338
:104FE800DA62714BDA6A960311D4DB6A5D030ED478
:104FF800206810F0100007D06B4BE1695A68002058
:1050080022F480020A435A6002B0BDE8F081664B80
:105018001A68D20000F191801A68500140F1C280EC
:10502800DA6AA36902F0F0029A4240F08D805E4E7F
:105038004FF08052F16A21F0F0010B43F362F16AFC
:10504800636921F470410B43F36292FAA2F3B3FA55
:1050580083F3DBB29B0003F1844303F5840301224D
:105068001A6001F0D5FE4FF00055074614E095FA96
:10507800A5F3B3FA83F3726A95FAA5F3B3FA83F347
:1050880003F01F0322FA03F3D907B1D401F0C0FEDD
:10509800C01B642800F2828095FAA5F3B3FA83F363
:1050A800DBB243F020035B09012BE0D13268E3E770
:1050B8003D4A3E4BD1691D4641F08051D161D269CC
:1050C80002F080520192019A1A6842F480721A60C2
:1050D80001F09EFE064604E001F09AFE801B64285B
:1050E8005CD82B68DF05F7D52F4E6368326A5340CA
:1050F80013F4407F1FD0336A4FF4803123F440709B
:1051080091FAA1F5B5FA85F5294AEDB2012742F8D9
:10511800257091FAA1F1B1FA81F10025C9B242F8DE
:1051280021509D07306213D41F4B6268196A21F41D
:1051380040710A431A62236836E7DA6A636902F43F
:1051480070429A423FF454AF012002B0BDE8F081AA
:1051580001F05EFE0225804641F2883795FAA5F3F4
:10516800B3FA83F395FAA5F3B3FA83F3DBB243F00A
:1051780040035B09022B0CBF326A726A95FAA5F3E9
:10518800B3FA83F303F01F0322FA03F3D807CBD44F
:1051980001F03EFEC8EB0000B842DFD9032002B0A0
:1051A800BDE8F081A36942E70010024000700040AA
:1051B800000442428268034642F0010200209A60DD
:1051C800704700BF8268034622F0010200209A60FF
:1051D800704700BF08B5C368012923F0C043C36006
:1051E80009D019B9C36843F08043C360322001F085
:1051F80011FE002008BDC36843F00053C36032208D
:1052080001F008FE002008BD84B0F0B405AC84E8C5
:105218000E0000231C4603F14002013300EB82021A
:105228000F2B54604FF00002F5D1836B4FF4846468
:1052380043F400238363C0F8002ED0F8003800F54B
:105248000065C0F80038D0F80028344B42F003025B
:10525800C0F80028046101E0013B02D0026994060D
:10526800FAD4102303612D4B01E0013B02D00269FF
:10527800D206FAD400224FF0FF332A616A61AB618B
:10528800EA6131B3164600F510634FF0904CFF27E2
:105298001C680132002CB4BFC3F800C01E608A42EB
:1052A8001E619F6003F12003F2D10022164600F52B
:1052B80030634FF0904CFF271C680132002CB4BFBC
:1052C800C3F800C01E608A421E619F6003F120037C
:1052D800F2D12969002221F480716FF0804329619D
:1052E8008261436182690E4B42F0100282618169DA
:1052F800099A0B4383611AB1836943F008038361F8
:105308000B9B012B05D1836943F0804343F00403D1
:1053180083610020F0BC04B0704700BF400D03005B
:1053280000383C80890141F020030361054A01E00F
:10533800013A05D0036913F02003F9D118467047E4
:1053480003207047400D030030B44B780A7803B14E
:10535800CA80CC78022C04BF00240C71012B1FD00A
:105368004FF4803303FA02F2D0F81C582A43C0F8ED
:105378001C280B785B0103F530631A5812040CD40F
:105388001A588C6842F08052C97842F40042C4F33B
:105398000A04224342EA81421A50002030BC704776
:1053A8009340D0F81C589BB22B43C0F81C380A789D
:1053B800530103F510631C582404EED41C588D685F
:1053C80044F08054C5F30A05C97844F400442C43DA
:1053D80044EA814444EA82521A5030BC00207047A3
:1053E8004B7830B4012B0C781BD0012202FA04F45C
:1053F800D0F83C5825EA0444C0F83C480D78D0F869
:105408001C48AA4024EA0242C0F81C280B785B0119
:1054180003F530631A5822F400421A5030BC0020B9
:10542800704703FA04F4D0F83C58A4B225EA0404FF
:10543800C0F83C480D78D0F81C48AB409BB224EA31
:105448000303C0F81C380B785B0103F510631A5886
:1054580022F400421A5030BC0020704770B44B78D8
:10546800012B69D00A7800EB4212D2F8103BDB0C12
:10547800DB04C2F8103B0A7800EB4212D2F8103B6A
:1054880023F0FF5323F4C013C2F8103B4B695BB3FE
:105498008A680D789C18013CB4FBF2F400EB4513C4
:1054A800A4B2794AD3F8105BE60432402A43C3F821
:1054B800102B8A680B7802FB04F200EB4313D3F835
:1054C800105BC2F312022A43C3F8102BCB78012BCE
:1054D80021D00B785B0103F53063C25842F00442D7
:1054E800C250002070BC70470B788A6800EB4313E9
:1054F800D3F8104BC2F312022243C3F8102B0B78D7
:1055080000EB4313D3F8102B42F40022C3F8102BFE
:10551800CB78012BDDD1D0F8083813F4807F0B78D5
:105528004FEA431303F53063C2580CBF42F00052F0
:1055380042F08052C250CCE74B69002B5FD00C7808
:10554800514B00EB4414D4F81029D20CD204C4F8FF
:1055580010290C7800EB4414D4F8102922F0FF52DB
:1055680022F4C012C4F810298C684D690A782544C1
:10557800013D00EB4212B5FBF4F4E404D2F81059F3
:1055880023402B43C2F810390B784A6900EB4313C8
:10559800D3F81049C2F312022243C3F81029CB787A
:1055A800012B5ED04B6963B10B7801229A40D0F889
:1055B800344800F500632243C0F83428CA78012A29
:1055C8003FD00B785B0103F51063C25842F00442E8
:1055D800C250CB78012B84D18C8ACA680334A410BA
:1055E8000B783FF47EAF00EB033000F580500023CA
:1055F80052F8041B01339C420160F9D171E70A7823
:1056080000EB4212D2F8103923F0FF5323F4C013F1
:10561800C2F810390B7800EB4313D3F8102942F481
:105628000022C3F810290A7800EB4212D2F8103988
:10563800DB0CDB04C2F81039CB78012BB2D100F5B2
:1056480000639B6813F4807F0B784FEA431303F5DC
:105658001063C2580CBF42F0005242F08052C25050
:10566800AFE70B7800EB4313D3F8102922F0C042C0
:10567800C3F810290B7800EB4313D3F8102942F034
:105688000052C3F81029D7E70000F81F4B7810B470
:10569800012B38D00A7800EB4212D2F8103BDB0C11
:1056A800DB04C2F8103B0A7800EB4212D2F8103B38
:1056B80023F0FF5323F4C013C2F8103B4B69FBB926
:1056C8000B7800EB4313D3F8102B42F40022C3F8F5
:1056D800102B0B788A6800EB4313D3F8104BC2F3F6
:1056E80012022243C3F8102B0B785B0103F53063D9
:1056F800C25842F00442C2505DF8044B0020704783
:105708008B684B61DCE70A784B6900EB4212002B8F
:105718003FD0D2F81039DB0CDB04C2F810390A7814
:1057280000EB4212D2F8103923F0FF5323F4C013D0
:10573800C2F810398B684A699A4288BF4B610B7866
:1057480000EB4313D3F8102942F40022C3F81029C0
:105758000B784A6900EB4313D3F81049C2F31202DD
:105768002243C3F810294B693BB10B7801229A40B8
:10577800D0F834482243C0F834280B785B0103F58D
:105788001063C25842F00442C2505DF8044B002036
:105798007047D2F8103923F0FF5323F4C013C2F82E
:1057A80010390B7800EB4313D3F8102942F4002288
:1057B800C3F810290A7800EB4212D2F81039DB0C32
:1057C800DB04C2F81039CEE7033330B49D100AD099
:1057D80000F5805000EB0232002351F8044B0133EE
:1057E8009D421460F9D1002030BC7047033270B478
:1057F80095100BD000F580560A4600233468013313
:105808009D4242F8044BF9D101EB8501084670BC72
:10581800704700BF4B7810B4012B0B784FEA431345
:1058280016D003F530631C581A18002C08DB1A58D8
:1058380022F080421A500A7800EB421000F53062DC
:105848001368002043F4001313605DF8044B70479D
:1058580003F510631C581A18002CF1DB1A5822F0B3
:1058680080421A500A7800EB421000F51062E7E710
:105878004B78012B0B784FEA431315D003F53063AF
:105888001A5822F400121A50CB78023B012B01D986
:10589800002070470B785B0103F530631A5842F01B
:1058A80080521A500020704703F510631A5822F4EA
:1058B80000121A50CB78023B012BE9D80B785B0118
:1058C80003F510631A5842F080521A50E0E700BFFF
:1058D800D0F80038090123F4FE63C0F80038D0F886
:1058E800002801F4FE631343C0F800380020704715
:1058F80008B5D0F8042800F5006322F0020203205E
:105908005A6001F087FA002008BD00BF08B5D0F83A
:10591800042800F5006342F0020203205A6001F0F7
:1059280079FA002008BD00BF4369806918407047B4
:10593800D0F8183800F50060C0691840000C7047AE
:10594800D0F81828D0F81C3802EA030080B2704753
:1059580000F5306303EB411100F500608B68406986
:1059680018407047D0F81028D0F83438CB4000EBF6
:105978004111DB01DBB2D1F808091A431040704726
:10598800406900F001007047D0F8002900F5006375
:1059980022F4FF6222F00702C0F800299A6802F098
:1059A8000602042A05D1D0F8002942F00302C0F803
:1059B80000295A68002042F480725A60704700BF7C
:1059C80000F53063002018611A6942F400221A6158
:1059D8001A6942F018021A611A6942F0C0421A6143
:1059E800704700BF80B485B000AF78600023FB60CB
:1059F800FB680133FB60FA68134B9A4201D9032311
:105A08001BE07B681B69002BF2DA0023FB607B68D4
:105A18001B6943F001027B681A61FB680133FB6074
:105A2800FA68094B9A4201D9032306E07B681B698F
:105A380003F00103002BF0D1002318461437BD46AC
:105A48005DF8047B704700BF400D030084B070B55B
:105A5800C66805AD46F04006C660044685E80E00F7
:105A6800FFF7C0FF4FF48033A3630020BDE8704008
:105A780004B07047014B01221A7070477002002071
:105A8800014B00221A7070477002002000212DE996
:105A9800F00703464FF07E5A054602460C4647F685
:105AA800FF7948F201084FF47A7C012701310C296B
:105AB800A3F824909C87A3F85480A3F800C04FF45F
:105AC8007A76177682F86C4003F10203A3F87640E1
